{
  "contractName": "ModelAnime",
  "abi": [
    {
      "inputs": [],
      "stateMutability": "nonpayable",
      "type": "constructor"
    },
    {
      "anonymous": false,
      "inputs": [
        {
          "indexed": true,
          "internalType": "address",
          "name": "_fromAddr",
          "type": "address"
        },
        {
          "indexed": true,
          "internalType": "string",
          "name": "_id",
          "type": "string"
        }
      ],
      "name": "_eventCreateModel",
      "type": "event"
    },
    {
      "anonymous": false,
      "inputs": [
        {
          "indexed": true,
          "internalType": "address",
          "name": "_fromAddr",
          "type": "address"
        },
        {
          "indexed": true,
          "internalType": "address",
          "name": "_toAddr",
          "type": "address"
        },
        {
          "indexed": true,
          "internalType": "uint256",
          "name": "_amount",
          "type": "uint256"
        }
      ],
      "name": "_eventTransferBalance",
      "type": "event"
    },
    {
      "anonymous": false,
      "inputs": [
        {
          "indexed": true,
          "internalType": "address",
          "name": "_fromAddr",
          "type": "address"
        },
        {
          "indexed": true,
          "internalType": "address",
          "name": "_toAddr",
          "type": "address"
        }
      ],
      "name": "_eventTransferModel",
      "type": "event"
    },
    {
      "inputs": [
        {
          "internalType": "string",
          "name": "_id",
          "type": "string"
        }
      ],
      "name": "incrementView",
      "outputs": [
        {
          "internalType": "bool",
          "name": "",
          "type": "bool"
        }
      ],
      "stateMutability": "nonpayable",
      "type": "function"
    },
    {
      "inputs": [
        {
          "internalType": "string",
          "name": "_id",
          "type": "string"
        }
      ],
      "name": "incrementStar",
      "outputs": [
        {
          "internalType": "bool",
          "name": "",
          "type": "bool"
        }
      ],
      "stateMutability": "nonpayable",
      "type": "function"
    },
    {
      "inputs": [
        {
          "internalType": "string",
          "name": "_id",
          "type": "string"
        }
      ],
      "name": "incrementComment",
      "outputs": [
        {
          "internalType": "bool",
          "name": "",
          "type": "bool"
        }
      ],
      "stateMutability": "nonpayable",
      "type": "function"
    },
    {
      "inputs": [
        {
          "internalType": "address",
          "name": "_fromAddr",
          "type": "address"
        },
        {
          "internalType": "address",
          "name": "_toAddr",
          "type": "address"
        },
        {
          "internalType": "string",
          "name": "_id",
          "type": "string"
        },
        {
          "internalType": "uint256",
          "name": "_nonce",
          "type": "uint256"
        }
      ],
      "name": "transferModel",
      "outputs": [
        {
          "internalType": "bool",
          "name": "",
          "type": "bool"
        }
      ],
      "stateMutability": "nonpayable",
      "type": "function"
    },
    {
      "inputs": [
        {
          "internalType": "address",
          "name": "_fromAddr",
          "type": "address"
        },
        {
          "internalType": "address",
          "name": "_toAddr",
          "type": "address"
        },
        {
          "internalType": "uint256",
          "name": "_amount",
          "type": "uint256"
        }
      ],
      "name": "transferBalane",
      "outputs": [
        {
          "internalType": "bool",
          "name": "",
          "type": "bool"
        }
      ],
      "stateMutability": "nonpayable",
      "type": "function"
    },
    {
      "inputs": [
        {
          "internalType": "address",
          "name": "_fromAddr",
          "type": "address"
        },
        {
          "internalType": "string",
          "name": "_id",
          "type": "string"
        },
        {
          "internalType": "string",
          "name": "_name",
          "type": "string"
        },
        {
          "internalType": "string",
          "name": "_madeFrom",
          "type": "string"
        },
        {
          "internalType": "bool",
          "name": "_limited",
          "type": "bool"
        },
        {
          "internalType": "uint256",
          "name": "price",
          "type": "uint256"
        }
      ],
      "name": "createModel",
      "outputs": [
        {
          "internalType": "bool",
          "name": "",
          "type": "bool"
        }
      ],
      "stateMutability": "nonpayable",
      "type": "function"
    },
    {
      "inputs": [
        {
          "internalType": "address",
          "name": "_ownerAddr",
          "type": "address"
        }
      ],
      "name": "showModels",
      "outputs": [
        {
          "components": [
            {
              "internalType": "string",
              "name": "id",
              "type": "string"
            },
            {
              "internalType": "string",
              "name": "name",
              "type": "string"
            },
            {
              "internalType": "string",
              "name": "madeFrom",
              "type": "string"
            },
            {
              "internalType": "bool",
              "name": "limited",
              "type": "bool"
            },
            {
              "internalType": "uint256",
              "name": "price",
              "type": "uint256"
            }
          ],
          "internalType": "struct ModelAnime.Model[]",
          "name": "",
          "type": "tuple[]"
        }
      ],
      "stateMutability": "view",
      "type": "function",
      "constant": true
    },
    {
      "inputs": [
        {
          "internalType": "address",
          "name": "_ownerAddr",
          "type": "address"
        },
        {
          "internalType": "string",
          "name": "_id",
          "type": "string"
        }
      ],
      "name": "showModelById",
      "outputs": [
        {
          "components": [
            {
              "internalType": "string",
              "name": "id",
              "type": "string"
            },
            {
              "internalType": "string",
              "name": "name",
              "type": "string"
            },
            {
              "internalType": "string",
              "name": "madeFrom",
              "type": "string"
            },
            {
              "internalType": "bool",
              "name": "limited",
              "type": "bool"
            },
            {
              "internalType": "uint256",
              "name": "price",
              "type": "uint256"
            }
          ],
          "internalType": "struct ModelAnime.Model",
          "name": "",
          "type": "tuple"
        }
      ],
      "stateMutability": "view",
      "type": "function",
      "constant": true
    },
    {
      "inputs": [
        {
          "internalType": "address",
          "name": "_ownerAddr",
          "type": "address"
        }
      ],
      "name": "showBalance",
      "outputs": [
        {
          "internalType": "uint256",
          "name": "",
          "type": "uint256"
        }
      ],
      "stateMutability": "view",
      "type": "function",
      "constant": true
    },
    {
      "inputs": [
        {
          "internalType": "string",
          "name": "_id",
          "type": "string"
        }
      ],
      "name": "showView",
      "outputs": [
        {
          "internalType": "uint256",
          "name": "",
          "type": "uint256"
        }
      ],
      "stateMutability": "view",
      "type": "function",
      "constant": true
    },
    {
      "inputs": [
        {
          "internalType": "string",
          "name": "_id",
          "type": "string"
        }
      ],
      "name": "showStar",
      "outputs": [
        {
          "internalType": "uint256",
          "name": "",
          "type": "uint256"
        }
      ],
      "stateMutability": "view",
      "type": "function",
      "constant": true
    },
    {
      "inputs": [
        {
          "internalType": "string",
          "name": "_id",
          "type": "string"
        }
      ],
      "name": "showComment",
      "outputs": [
        {
          "internalType": "uint256",
          "name": "",
          "type": "uint256"
        }
      ],
      "stateMutability": "view",
      "type": "function",
      "constant": true
    },
    {
      "inputs": [
        {
          "internalType": "address",
          "name": "_ownerAddr",
          "type": "address"
        }
      ],
      "name": "showNonce",
      "outputs": [
        {
          "internalType": "uint256",
          "name": "",
          "type": "uint256"
        }
      ],
      "stateMutability": "view",
      "type": "function",
      "constant": true
    },
    {
      "inputs": [
        {
          "internalType": "address",
          "name": "_ownerAddr",
          "type": "address"
        },
        {
          "internalType": "string",
          "name": "_id",
          "type": "string"
        }
      ],
      "name": "showOwner",
      "outputs": [
        {
          "internalType": "bool",
          "name": "",
          "type": "bool"
        }
      ],
      "stateMutability": "view",
      "type": "function",
      "constant": true
    }
  ],
  "bytecode": "0x608060405234801561001057600080fd5b50336000806101000a81548173ffffffffffffffffffffffffffffffffffffffff021916908373ffffffffffffffffffffffffffffffffffffffff160217905550670de0b6b3a7640000600560003373ffffffffffffffffffffffffffffffffffffffff1673ffffffffffffffffffffffffffffffffffffffff1681526020019081526020016000208190555061261c806100ac6000396000f3fe608060405234801561001057600080fd5b50600436106100ea5760003560e01c80636db7c4fc1161008c578063ba464b7411610066578063ba464b74146102cf578063ca34427b146102ff578063d23cb79f1461032f578063ea2c2ff71461035f576100ea565b80636db7c4fc1461023f5780637fd2ee7c1461026f5780639c080f5d1461029f576100ea565b80633274f6eb116100c85780633274f6eb1461017f57806335d6199e146101af5780633c336e06146101df5780636d5184721461020f576100ea565b80630e84f4c6146100ef5780630f9cc62f1461011f57806321d633bc1461014f575b600080fd5b61010960048036038101906101049190611c21565b61038f565b6040516101169190612195565b60405180910390f35b61013960048036038101906101349190611e78565b610678565b60405161014691906121b7565b60405180910390f35b61016960048036038101906101649190611d29565b6106bb565b60405161017691906121b7565b60405180910390f35b61019960048036038101906101949190611e78565b610731565b6040516101a691906121b7565b60405180910390f35b6101c960048036038101906101c49190611e78565b610775565b6040516101d691906121b7565b60405180910390f35b6101f960048036038101906101f49190611d29565b6107b9565b6040516102069190612252565b60405180910390f35b61022960048036038101906102249190611e78565b610a7d565b6040516102369190612274565b60405180910390f35b61025960048036038101906102549190611e78565b610aa8565b6040516102669190612274565b60405180910390f35b61028960048036038101906102849190611cd6565b610ad3565b60405161029691906121b7565b60405180910390f35b6102b960048036038101906102b49190611c21565b610c69565b6040516102c69190612274565b60405180910390f35b6102e960048036038101906102e49190611c21565b610d21565b6040516102f69190612274565b60405180910390f35b61031960048036038101906103149190611d89565b610d6a565b60405161032691906121b7565b60405180910390f35b61034960048036038101906103449190611c4e565b6111fc565b60405161035691906121b7565b60405180910390f35b61037960048036038101906103749190611e78565b611a00565b6040516103869190612274565b60405180910390f35b6060600073ffffffffffffffffffffffffffffffffffffffff168273ffffffffffffffffffffffffffffffffffffffff161415610401576040517f08c379a00000000000000000000000000000000000000000000000000000000081526004016103f8906121f2565b60405180910390fd5b600760008373ffffffffffffffffffffffffffffffffffffffff1673ffffffffffffffffffffffffffffffffffffffff168152602001908152602001600020805480602002602001604051908101604052809291908181526020016000905b8282101561066d57838290600052602060002090600502016040518060a001604052908160008201805461049390612414565b80601f01602080910402602001604051908101604052809291908181526020018280546104bf90612414565b801561050c5780601f106104e15761010080835404028352916020019161050c565b820191906000526020600020905b8154815290600101906020018083116104ef57829003601f168201915b5050505050815260200160018201805461052590612414565b80601f016020809104026020016040519081016040528092919081815260200182805461055190612414565b801561059e5780601f106105735761010080835404028352916020019161059e565b820191906000526020600020905b81548152906001019060200180831161058157829003601f168201915b505050505081526020016002820180546105b790612414565b80601f01602080910402602001604051908101604052809291908181526020018280546105e390612414565b80156106305780601f1061060557610100808354040283529160200191610630565b820191906000526020600020905b81548152906001019060200180831161061357829003601f168201915b505050505081526020016003820160009054906101000a900460ff1615151515815260200160048201548152505081526020019060010190610460565b505050509050919050565b6000600180848460405161068d92919061217c565b908152602001604051809103902060008282546106aa9190612300565b925050819055506001905092915050565b6000600860008573ffffffffffffffffffffffffffffffffffffffff1673ffffffffffffffffffffffffffffffffffffffff168152602001908152602001600020838360405161070c92919061217c565b908152602001604051809103902060009054906101000a900460ff1690509392505050565b600060016003848460405161074792919061217c565b908152602001604051809103902060008282546107649190612300565b925050819055506001905092915050565b600060016002848460405161078b92919061217c565b908152602001604051809103902060008282546107a89190612300565b925050819055506001905092915050565b6107c1611a2b565b600073ffffffffffffffffffffffffffffffffffffffff168473ffffffffffffffffffffffffffffffffffffffff161415610831576040517f08c379a0000000000000000000000000000000000000000000000000000000008152600401610828906121f2565b60405180910390fd5b600660008573ffffffffffffffffffffffffffffffffffffffff1673ffffffffffffffffffffffffffffffffffffffff168152602001908152602001600020838360405161088092919061217c565b90815260200160405180910390206040518060a00160405290816000820180546108a990612414565b80601f01602080910402602001604051908101604052809291908181526020018280546108d590612414565b80156109225780601f106108f757610100808354040283529160200191610922565b820191906000526020600020905b81548152906001019060200180831161090557829003601f168201915b5050505050815260200160018201805461093b90612414565b80601f016020809104026020016040519081016040528092919081815260200182805461096790612414565b80156109b45780601f10610989576101008083540402835291602001916109b4565b820191906000526020600020905b81548152906001019060200180831161099757829003601f168201915b505050505081526020016002820180546109cd90612414565b80601f01602080910402602001604051908101604052809291908181526020018280546109f990612414565b8015610a465780601f10610a1b57610100808354040283529160200191610a46565b820191906000526020600020905b815481529060010190602001808311610a2957829003601f168201915b505050505081526020016003820160009054906101000a900460ff1615151515815260200160048201548152505090509392505050565b600060028383604051610a9192919061217c565b908152602001604051809103902054905092915050565b600060018383604051610abc92919061217c565b908152602001604051809103902054905092915050565b600081600560008673ffffffffffffffffffffffffffffffffffffffff1673ffffffffffffffffffffffffffffffffffffffff168152602001908152602001600020541015610b57576040517f08c379a0000000000000000000000000000000000000000000000000000000008152600401610b4e90612232565b60405180910390fd5b81600560008573ffffffffffffffffffffffffffffffffffffffff1673ffffffffffffffffffffffffffffffffffffffff1681526020019081526020016000206000828254610ba69190612300565b9250508190555081600560008673ffffffffffffffffffffffffffffffffffffffff1673ffffffffffffffffffffffffffffffffffffffff1681526020019081526020016000206000828254610bfc9190612356565b92505081905550818373ffffffffffffffffffffffffffffffffffffffff168573ffffffffffffffffffffffffffffffffffffffff167f2570fac9de03455c625d41980b5e7172a3a275b5933022c787baede32f73d0ef60405160405180910390a4600190509392505050565b60008073ffffffffffffffffffffffffffffffffffffffff168273ffffffffffffffffffffffffffffffffffffffff161415610cda576040517f08c379a0000000000000000000000000000000000000000000000000000000008152600401610cd1906121f2565b60405180910390fd5b600560008373ffffffffffffffffffffffffffffffffffffffff1673ffffffffffffffffffffffffffffffffffffffff168152602001908152602001600020549050919050565b6000600460008373ffffffffffffffffffffffffffffffffffffffff1673ffffffffffffffffffffffffffffffffffffffff168152602001908152602001600020549050919050565b60008060009054906101000a900473ffffffffffffffffffffffffffffffffffffffff1673ffffffffffffffffffffffffffffffffffffffff163373ffffffffffffffffffffffffffffffffffffffff1614610dfb576040517f08c379a0000000000000000000000000000000000000000000000000000000008152600401610df290612212565b60405180910390fd5b60006040518060a001604052808b8b8080601f016020809104026020016040519081016040528093929190818152602001838380828437600081840152601f19601f82011690508083019250505050505050815260200189898080601f016020809104026020016040519081016040528093929190818152602001838380828437600081840152601f19601f82011690508083019250505050505050815260200187878080601f016020809104026020016040519081016040528093929190818152602001838380828437600081840152601f19601f820116905080830192505050505050508152602001851515815260200184815250905080600660008d73ffffffffffffffffffffffffffffffffffffffff1673ffffffffffffffffffffffffffffffffffffffff1681526020019081526020016000208b8b604051610f4492919061217c565b90815260200160405180910390206000820151816000019080519060200190610f6e929190611a5c565b506020820151816001019080519060200190610f8b929190611a5c565b506040820151816002019080519060200190610fa8929190611a5c565b5060608201518160030160006101000a81548160ff02191690831515021790555060808201518160040155905050600760008c73ffffffffffffffffffffffffffffffffffffffff1673ffffffffffffffffffffffffffffffffffffffff168152602001908152602001600020819080600181540180825580915050600190039060005260206000209060050201600090919091909150600082015181600001908051906020019061105b929190611a5c565b506020820151816001019080519060200190611078929190611a5c565b506040820151816002019080519060200190611095929190611a5c565b5060608201518160030160006101000a81548160ff0219169083151502179055506080820151816004015550506001600860008d73ffffffffffffffffffffffffffffffffffffffff1673ffffffffffffffffffffffffffffffffffffffff1681526020019081526020016000208b8b60405161111392919061217c565b908152602001604051809103902060006101000a81548160ff0219169083151502179055506001600460008d73ffffffffffffffffffffffffffffffffffffffff1673ffffffffffffffffffffffffffffffffffffffff16815260200190815260200160002060008282546111889190612300565b92505081905550898960405161119f92919061217c565b60405180910390208b73ffffffffffffffffffffffffffffffffffffffff167ff3586eca498ccdaa3bfa1744778d4ca687296565a4cfb834f2320c7b2b1754f960405160405180910390a360019150509998505050505050505050565b60008573ffffffffffffffffffffffffffffffffffffffff163373ffffffffffffffffffffffffffffffffffffffff161461126c576040517f08c379a0000000000000000000000000000000000000000000000000000000008152600401611263906121d2565b60405180910390fd5b600660008773ffffffffffffffffffffffffffffffffffffffff1673ffffffffffffffffffffffffffffffffffffffff16815260200190815260200160002084846040516112bb92919061217c565b908152602001604051809103902060040154600560008773ffffffffffffffffffffffffffffffffffffffff1673ffffffffffffffffffffffffffffffffffffffff16815260200190815260200160002054101561134e576040517f08c379a000000000000000000000000000000000000000000000000000000000815260040161134590612232565b60405180910390fd5b81600460008873ffffffffffffffffffffffffffffffffffffffff1673ffffffffffffffffffffffffffffffffffffffff1681526020019081526020016000205411156113d0576040517f08c379a00000000000000000000000000000000000000000000000000000000081526004016113c7906121d2565b60405180910390fd5b60011515600860008873ffffffffffffffffffffffffffffffffffffffff1673ffffffffffffffffffffffffffffffffffffffff168152602001908152602001600020858560405161142392919061217c565b908152602001604051809103902060009054906101000a900460ff16151514611481576040517f08c379a0000000000000000000000000000000000000000000000000000000008152600401611478906121d2565b60405180910390fd5b600660008773ffffffffffffffffffffffffffffffffffffffff1673ffffffffffffffffffffffffffffffffffffffff16815260200190815260200160002084846040516114d092919061217c565b908152602001604051809103902060040154600560008873ffffffffffffffffffffffffffffffffffffffff1673ffffffffffffffffffffffffffffffffffffffff16815260200190815260200160002060008282546115309190612300565b92505081905550600660008773ffffffffffffffffffffffffffffffffffffffff1673ffffffffffffffffffffffffffffffffffffffff168152602001908152602001600020848460405161158692919061217c565b908152602001604051809103902060040154600560008773ffffffffffffffffffffffffffffffffffffffff1673ffffffffffffffffffffffffffffffffffffffff16815260200190815260200160002060008282546115e69190612356565b92505081905550600760008773ffffffffffffffffffffffffffffffffffffffff1673ffffffffffffffffffffffffffffffffffffffff1681526020019081526020016000206001836116399190612356565b8154811061164a576116496124a4565b5b9060005260206000209060050201600660008773ffffffffffffffffffffffffffffffffffffffff1673ffffffffffffffffffffffffffffffffffffffff16815260200190815260200160002085856040516116a792919061217c565b908152602001604051809103902060008201816000019080546116c990612414565b6116d4929190611ae2565b5060018201816001019080546116e990612414565b6116f4929190611ae2565b50600282018160020190805461170990612414565b611714929190611ae2565b506003820160009054906101000a900460ff168160030160006101000a81548160ff02191690831515021790555060048201548160040155905050600760008673ffffffffffffffffffffffffffffffffffffffff1673ffffffffffffffffffffffffffffffffffffffff168152602001908152602001600020600660008773ffffffffffffffffffffffffffffffffffffffff1673ffffffffffffffffffffffffffffffffffffffff16815260200190815260200160002085856040516117dd92919061217c565b90815260200160405180910390209080600181540180825580915050600190039060005260206000209060050201600090919091909150600082018160000190805461182890612414565b611833929190611ae2565b50600182018160010190805461184890612414565b611853929190611ae2565b50600282018160020190805461186890612414565b611873929190611ae2565b506003820160009054906101000a900460ff168160030160006101000a81548160ff0219169083151502179055506004820154816004015550506000600860008873ffffffffffffffffffffffffffffffffffffffff1673ffffffffffffffffffffffffffffffffffffffff16815260200190815260200160002085856040516118fe92919061217c565b908152602001604051809103902060006101000a81548160ff0219169083151502179055506001600860008773ffffffffffffffffffffffffffffffffffffffff1673ffffffffffffffffffffffffffffffffffffffff168152602001908152602001600020858560405161197492919061217c565b908152602001604051809103902060006101000a81548160ff0219169083151502179055508473ffffffffffffffffffffffffffffffffffffffff168673ffffffffffffffffffffffffffffffffffffffff167fc4f8879bbe3331329d5f11ebfe2bb1c6f3396dfef3fa53e219c2817aa1f2378a60405160405180910390a36001905095945050505050565b600060038383604051611a1492919061217c565b908152602001604051809103902054905092915050565b6040518060a00160405280606081526020016060815260200160608152602001600015158152602001600081525090565b828054611a6890612414565b90600052602060002090601f016020900481019282611a8a5760008555611ad1565b82601f10611aa357805160ff1916838001178555611ad1565b82800160010185558215611ad1579182015b82811115611ad0578251825591602001919060010190611ab5565b5b509050611ade9190611b6f565b5090565b828054611aee90612414565b90600052602060002090601f016020900481019282611b105760008555611b5e565b82601f10611b215780548555611b5e565b82800160010185558215611b5e57600052602060002091601f016020900482015b82811115611b5d578254825591600101919060010190611b42565b5b509050611b6b9190611b6f565b5090565b5b80821115611b88576000816000905550600101611b70565b5090565b600081359050611b9b816125a1565b92915050565b600081359050611bb0816125b8565b92915050565b60008083601f840112611bcc57611bcb6124d8565b5b8235905067ffffffffffffffff811115611be957611be86124d3565b5b602083019150836001820283011115611c0557611c046124dd565b5b9250929050565b600081359050611c1b816125cf565b92915050565b600060208284031215611c3757611c366124e7565b5b6000611c4584828501611b8c565b91505092915050565b600080600080600060808688031215611c6a57611c696124e7565b5b6000611c7888828901611b8c565b9550506020611c8988828901611b8c565b945050604086013567ffffffffffffffff811115611caa57611ca96124e2565b5b611cb688828901611bb6565b93509350506060611cc988828901611c0c565b9150509295509295909350565b600080600060608486031215611cef57611cee6124e7565b5b6000611cfd86828701611b8c565b9350506020611d0e86828701611b8c565b9250506040611d1f86828701611c0c565b9150509250925092565b600080600060408486031215611d4257611d416124e7565b5b6000611d5086828701611b8c565b935050602084013567ffffffffffffffff811115611d7157611d706124e2565b5b611d7d86828701611bb6565b92509250509250925092565b600080600080600080600080600060c08a8c031215611dab57611daa6124e7565b5b6000611db98c828d01611b8c565b99505060208a013567ffffffffffffffff811115611dda57611dd96124e2565b5b611de68c828d01611bb6565b985098505060408a013567ffffffffffffffff811115611e0957611e086124e2565b5b611e158c828d01611bb6565b965096505060608a013567ffffffffffffffff811115611e3857611e376124e2565b5b611e448c828d01611bb6565b94509450506080611e578c828d01611ba1565b92505060a0611e688c828d01611c0c565b9150509295985092959850929598565b60008060208385031215611e8f57611e8e6124e7565b5b600083013567ffffffffffffffff811115611ead57611eac6124e2565b5b611eb985828601611bb6565b92509250509250929050565b6000611ed18383612056565b905092915050565b6000611ee48261229f565b611eee81856122c2565b935083602082028501611f008561228f565b8060005b85811015611f3c5784840389528151611f1d8582611ec5565b9450611f28836122b5565b925060208a01995050600181019050611f04565b50829750879550505050505092915050565b611f578161239c565b82525050565b611f668161239c565b82525050565b6000611f7883856122f5565b9350611f858385846123d2565b82840190509392505050565b6000611f9c826122aa565b611fa681856122d3565b9350611fb68185602086016123e1565b611fbf816124ec565b840191505092915050565b6000611fd76010836122e4565b9150611fe2826124fd565b602082019050919050565b6000611ffa600f836122e4565b915061200582612526565b602082019050919050565b600061201d601a836122e4565b91506120288261254f565b602082019050919050565b60006120406017836122e4565b915061204b82612578565b602082019050919050565b600060a08301600083015184820360008601526120738282611f91565b9150506020830151848203602086015261208d8282611f91565b915050604083015184820360408601526120a78282611f91565b91505060608301516120bc6060860182611f4e565b5060808301516120cf608086018261215e565b508091505092915050565b600060a08301600083015184820360008601526120f78282611f91565b915050602083015184820360208601526121118282611f91565b9150506040830151848203604086015261212b8282611f91565b91505060608301516121406060860182611f4e565b506080830151612153608086018261215e565b508091505092915050565b612167816123c8565b82525050565b612176816123c8565b82525050565b6000612189828486611f6c565b91508190509392505050565b600060208201905081810360008301526121af8184611ed9565b905092915050565b60006020820190506121cc6000830184611f5d565b92915050565b600060208201905081810360008301526121eb81611fca565b9050919050565b6000602082019050818103600083015261220b81611fed565b9050919050565b6000602082019050818103600083015261222b81612010565b9050919050565b6000602082019050818103600083015261224b81612033565b9050919050565b6000602082019050818103600083015261226c81846120da565b905092915050565b6000602082019050612289600083018461216d565b92915050565b6000819050602082019050919050565b600081519050919050565b600081519050919050565b6000602082019050919050565b600082825260208201905092915050565b600082825260208201905092915050565b600082825260208201905092915050565b600081905092915050565b600061230b826123c8565b9150612316836123c8565b9250827fffffffffffffffffffffffffffffffffffffffffffffffffffffffffffffffff0382111561234b5761234a612446565b5b828201905092915050565b6000612361826123c8565b915061236c836123c8565b92508282101561237f5761237e612446565b5b828203905092915050565b6000612395826123a8565b9050919050565b60008115159050919050565b600073ffffffffffffffffffffffffffffffffffffffff82169050919050565b6000819050919050565b82818337600083830152505050565b60005b838110156123ff5780820151818401526020810190506123e4565b8381111561240e576000848401525b50505050565b6000600282049050600182168061242c57607f821691505b602082108114156124405761243f612475565b5b50919050565b7f4e487b7100000000000000000000000000000000000000000000000000000000600052601160045260246000fd5b7f4e487b7100000000000000000000000000000000000000000000000000000000600052602260045260246000fd5b7f4e487b7100000000000000000000000000000000000000000000000000000000600052603260045260246000fd5b600080fd5b600080fd5b600080fd5b600080fd5b600080fd5b6000601f19601f8301169050919050565b7f596f75277265206e6f74206f776e657200000000000000000000000000000000600082015250565b7f696e76616c696420616464726573730000000000000000000000000000000000600082015250565b7f4f6e6c792041646d696e207573652074686973206d6574686f64000000000000600082015250565b7f596f75722062616c616e6365206e6f7420656e6f756768000000000000000000600082015250565b6125aa8161238a565b81146125b557600080fd5b50565b6125c18161239c565b81146125cc57600080fd5b50565b6125d8816123c8565b81146125e357600080fd5b5056fea264697066735822122018854cb10fe94d2ab9e2c054e86c37ef199f85721e9508e1a09951403e8715cc64736f6c63430008060033",
  "immutableReferences": {},
  "source": "pragma solidity ^0.8.6;\r\npragma experimental ABIEncoderV2;\r\n\r\ncontract ModelAnime{\r\n    \r\n    struct Model {\r\n        string id;\r\n        string name;\r\n        string madeFrom;\r\n        bool limited;\r\n        uint price;\r\n    }\r\n    \r\n    constructor(){\r\n        admin = msg.sender;\r\n        balance[msg.sender] = 10**18;\r\n    }\r\n    \r\n    address private admin;\r\n    mapping(string => uint) private views;\r\n    mapping(string => uint) private star;\r\n    mapping(string => uint) private comment;\r\n    mapping(address => uint) private nonce;\r\n    mapping(address => uint) private balance;\r\n    mapping(address => mapping(string => Model)) private model;\r\n    mapping(address => Model[]) private models;\r\n    mapping(address => mapping(string => bool)) private owner;\r\n\r\n    modifier onlyAdmin {\r\n        require(msg.sender == admin, \"Only Admin use this method\");\r\n        _;\r\n    }\r\n    \r\n    event _eventTransferModel(address indexed _fromAddr, address indexed _toAddr);\r\n    event _eventCreateModel(address indexed _fromAddr, string indexed _id);\r\n    event _eventTransferBalance(address indexed _fromAddr, address indexed _toAddr, uint indexed _amount);\r\n    \r\n    function incrementView(string calldata _id) external returns (bool){\r\n        views[_id] += 1;\r\n        return true;\r\n    }\r\n    \r\n    function incrementStar(string calldata _id) external returns (bool){\r\n        star[_id] += 1;\r\n        return true;\r\n    }\r\n    \r\n    function incrementComment(string calldata _id) external returns (bool){\r\n        comment[_id] += 1;\r\n        return true;\r\n    }\r\n    \r\n    function transferModel(address _fromAddr, address _toAddr, string calldata _id, uint _nonce) external returns (bool){\r\n        require(msg.sender == _fromAddr, \"You're not owner\");\r\n        require(balance[_toAddr]  >= model[_fromAddr][_id].price, \"Your balance not enough\");\r\n        require(nonce[_fromAddr] <= _nonce, \"You're not owner\");\r\n        require(owner[_fromAddr][_id] == true, \"You're not owner\");\r\n        \r\n        balance[_fromAddr] += model[_fromAddr][_id].price;\r\n        balance[_toAddr] -= model[_fromAddr][_id].price;\r\n        model[_toAddr][_id] =  models[_fromAddr][_nonce-1];\r\n        models[_toAddr].push(model[_toAddr][_id]);\r\n        \r\n        owner[_fromAddr][_id] = false;\r\n        owner[_toAddr][_id] = true;\r\n        \r\n        emit _eventTransferModel(_fromAddr, _toAddr);\r\n        return true;\r\n    }\r\n    \r\n    function transferBalane(address _fromAddr, address _toAddr, uint _amount) external returns (bool){\r\n        require(balance[_fromAddr]  >= _amount, \"Your balance not enough\");\r\n        balance[_toAddr] += _amount;\r\n        balance[_fromAddr] -= _amount;\r\n        \r\n        emit _eventTransferBalance(_fromAddr, _toAddr, _amount);\r\n        return true;\r\n    }\r\n    \r\n    function createModel(address _fromAddr,string calldata _id, string calldata _name, string calldata _madeFrom, bool _limited, uint price) external onlyAdmin returns (bool){\r\n        Model memory _modelObj = Model(_id, _name, _madeFrom, _limited, price);\r\n        model[_fromAddr][_id] = _modelObj;\r\n        models[_fromAddr].push(_modelObj);\r\n        owner[_fromAddr][_id] = true;\r\n        nonce[_fromAddr] += 1;\r\n        \r\n        \r\n        emit _eventCreateModel(_fromAddr, _id);\r\n        return true;\r\n    }\r\n    \r\n    function showModels(address _ownerAddr) external view returns(Model[] memory){\r\n        require(_ownerAddr != address(0), \"invalid address\");\r\n        return models[_ownerAddr];\r\n    }\r\n    \r\n    function showModelById(address _ownerAddr,string calldata _id) external view returns(Model memory){\r\n        require(_ownerAddr != address(0), \"invalid address\");\r\n        return model[_ownerAddr][_id];\r\n    }\r\n    \r\n    function showBalance(address _ownerAddr) external view returns(uint){\r\n        require(_ownerAddr != address(0), \"invalid address\");\r\n        return balance[_ownerAddr];\r\n    }\r\n    \r\n    function showView(string calldata _id) external view returns(uint){\r\n        return views[_id];\r\n    }\r\n    \r\n    function showStar(string calldata _id) external view returns(uint){\r\n        return star[_id];\r\n    }\r\n    \r\n    function showComment(string calldata _id) external view returns(uint){\r\n        return comment[_id];\r\n    }\r\n    \r\n    function showNonce(address _ownerAddr) external view returns(uint){\r\n        return nonce[_ownerAddr];\r\n    }\r\n    \r\n    function showOwner(address _ownerAddr, string calldata _id) external view returns(bool){\r\n        return owner[_ownerAddr][_id];\r\n    }\r\n    \r\n}",
  "sourcePath": "C:/Users/arimc/OneDrive/besu/_truffle/contracts/ModelAnime.sol",
  "compiler": {
    "name": "solc",
    "version": "0.8.6+commit.11564f7e.Emscripten.clang"
  },
  "schemaVersion": "3.4.1",
  "updatedAt": "2021-07-01T20:03:57.709Z",
  "networkType": "ethereum",
  "devdoc": {
    "kind": "dev",
    "methods": {},
    "version": 1
  },
  "userdoc": {
    "kind": "user",
    "methods": {},
    "version": 1
  }
}